:100000000C945D000C9485000C9485000C94850084
:100010000C9485000C9485000C9485000C9485004C
:100020000C9485000C9485000C9485000C9485003C
:100030000C9485000C9485000C9485000C9485002C
:100040000C9445050C9485000C94B5050C948F0513
:100050000C9485000C9485000C9485000C9485000C
:100060000C94E7050C9485000000000800020100D4
:100070000003040700000000000000000000000072
:10008000250028002B0000000000240027002A0083
:10009000040404040404040402020202020203032E
:1000A0000303030301020408102040800102040836
:1000B0001020010204081020150711241FBECFEFE5
:1000C000D8E0DEBFCDBF11E0A0E0B1E0E8E2F1E1B1
:1000D00002C005900D92A83BB107D9F723E0A8EB29
:1000E000B1E001C01D92AC32B207E1F710E0CDE5FE
:1000F000D0E004C02197FE010E948708CC35D107CB
:10010000C9F70E945D070C9492080C94000090E0DF
:10011000FC01EC55FF4F2491FC01E057FF4F849107
:10012000882399F090E0880F991FFC01EA57FF4F50
:10013000A591B491FC01E458FF4F859194918FB73C
:10014000F894EC91E22BEC938FBF089590E0FC01C2
:10015000E859FF4F2491FC01EC55FF4F3491FC010D
:10016000E057FF4FE491EE2309F43CC0222339F11C
:10017000233091F038F42130A9F0223001F584B514
:100180008F7D12C0273091F02830A1F02430B9F4CF
:10019000809180008F7D03C0809180008F77809355
:1001A00080000DC084B58F7784BD09C08091B000F8
:1001B0008F7703C08091B0008F7D8093B000F0E016
:1001C000EE0FFF1FE458FF4FA591B4919FB7F8942D
:1001D000611104C08C913095382302C0EC913E2B04
:1001E0003C939FBF08951F93CF93DF93182FEB018C
:1001F0000E948700209711F460E004C0CF3FD10532
:1002000039F461E0812FDF91CF911F910C94A6000A
:10021000E12FF0E0E859FF4FE491E330F9F048F4C2
:10022000E130B9F0E230A1F584B5806284BDC8BD8B
:1002300034C0E730E9F0E83019F1E43049F5809155
:100240008000806280938000D0938B00C0938A00EE
:1002500024C084B5806884BDC7BD1FC08091800064
:10026000806880938000D0938900C093880015C077
:100270008091B00080688093B000C093B3000DC03F
:100280008091B00080628093B000C093B40005C03C
:10029000C038D1050CF0B5CFAFCFDF91CF911F9112
:1002A00008953FB7F8948091730290917402A091E1
:1002B0007502B091760226B5A89B05C02F3F19F0B4
:1002C0000196A11DB11D3FBFBA2FA92F982F8827D6
:1002D000820F911DA11DB11DBC01CD0142E0660F31
:1002E000771F881F991F4A95D1F708958F929F9283
:1002F000AF92BF92CF92DF92EF92FF926B017C019F
:100300000E9451014B015C01C114D104E104F104CC
:10031000F1F00E945101DC01CB0188199909AA0969
:10032000BB09883E9340A105B10570F321E0C21AD4
:10033000D108E108F10888EE880E83E0981EA11C20
:10034000B11CC114D104E104F10419F7DDCFFF9011
:10035000EF90DF90CF90BF90AF909F908F900895D7
:1003600008950895CF92DF92EF92FF920F931F931B
:10037000CF93DF936C017A018B01C0E0D0E0CE1502
:10038000DF0581F0D8016D918D01D601ED91FC91D1
:100390000190F081E02DC6010995892B11F021967D
:1003A000EECF7E01C701DF91CF911F910F91FF909A
:1003B000EF90DF90CF900895FC01538D448D252F51
:1003C00030E0842F90E0821B930B541710F0CF96EF
:1003D000089501970895FC01918D828D981761F021
:1003E000828DDF01A80FB11D5D968C91928D9F5F6C
:1003F0009F73928F90E008958FEF9FEF0895FC0117
:10040000918D828D981731F0828DE80FF11D858DC9
:1004100090E008958FEF9FEF0895FC01918D228D5C
:10042000892F90E0805C9F4F821B91098F739927E1
:10043000089587E792E00E940D0221E0892B09F4DC
:1004400020E0822F0895FC01848DDF01A80FB11DEB
:10045000A35ABF4F2C91848D90E001968F739927FA
:10046000848FA689B7892C93A089B1898C918370D8
:1004700080648C93938D848D981306C00288F389D1
:10048000E02D80818F7D80830895EF92FF920F93FE
:100490001F93CF93DF93EC0181E0888F9B8D8C8D30
:1004A000981305C0E889F989808185FD26C0F62E5C
:1004B0000B8D10E00F5F1F4F0F731127E02E8C8DF7
:1004C000E8120CC00FB607FCFACFE889F9898081E1
:1004D00085FFF5CFCE010E942302F1CF8B8DFE0167
:1004E000E80FF11DE35AFF4FF0829FB7F8940B8F8E
:1004F000EA89FB89808180620AC09FB7F894EE89FF
:10050000FF896083E889F9898081837080648083B2
:100510009FBF81E090E0DF91CF911F910F91FF90FD
:10052000EF900895CF93DF93EC01888D8823C9F075
:10053000EA89FB89808185FD05C0A889B9898C91EC
:1005400086FD0FC00FB607FCF5CF808185FFF2CF87
:10055000A889B9898C9185FFEDCFCE010E94230235
:10056000E7CFDF91CF91089580E090E0892B29F0CB
:100570000E94190281110C940000089585ED80936A
:10058000BC008091BC0084FDFCCF109267020895EE
:100590004091F801262F30E0240F311D2132310522
:1005A000DCF4209167022430C9F4FC0180E090E083
:1005B000861758F43091F8012191DC01A852BE4F02
:1005C000A30FB11D2C930196F3CF8091F801680F12
:1005D0006093F80180E0089581E0089582E0089535
:1005E0000895E0916B0280916A02E81730F4F0E020
:1005F000E854FE4F808190E008958FEF9FEF0895BB
:1006000090916B0280916A02981750F4E92FF0E004
:10061000E854FE4F208130E09F5F90936B0202C050
:100620002FEF3FEFC901089580916A0290E0209179
:100630006B02821B91090895CF92DF92EF92FF9295
:100640000F931F93CF93DF937C01CB018A012091FD
:100650003F02222389F0EB016B01C40ED51ECC159D
:10066000DD0569F06991D701ED91FC910190F08170
:10067000E02DC7010995F3CF642F0E94C802C8017D
:10068000DF91CF911F910F91FF90EF90DF90CF906E
:100690000895CF93DF931F92CDB7DEB76983209182
:1006A0003F022223D1F020916802203240F021E065
:1006B00030E0FC013383228380E090E015C080911C
:1006C0006902E82FF0E0E05CFD4F998190838F5F35
:1006D000809369028093680205C061E0CE010196B3
:1006E0000E94C80281E090E00F90DF91CF910895C1
:1006F000CF93FC01C48121E020933F02C0936002AC
:1007000010926902109268028385682B84E193E05D
:100710000E94490390916802913208F045C080918F
:1007200067028111FCCF82E08093670281E08093B1
:1007300066028FEF80933E0210923D0290933C023E
:10074000A0E4B2E0ECE1F2E080E0981721F02D9116
:1007500021938F5FFACF10921B0280911B02CC0F66
:10076000C82BC0931B0280916502813061F4109206
:10077000650280911B028093BB008091BC0083FDC9
:10078000F8CF85EC01C085EE8093BC0080916702B4
:100790008230E1F380913E028F3F31F080913E0242
:1007A000803211F080913E0210926902109268022C
:1007B00010923F02CF9108950F931F93CF938C0116
:1007C000C62F0E9478036C2F6460C8010E947803D2
:1007D0006C2F6B7FC8010E94780383EC90E0019737
:1007E000F1F7CF911F910F9108950F931F93CF931E
:1007F000DF938C01C62FD42F607F642B0E94DC0313
:1008000080E1C89FB00111246D2BC801DF91CF9109
:100810001F910F910C94DC03CF93DF93CDB7DEB71C
:1008200028970FB6F894DEBF0FBECDBF88E0E0E09A
:10083000F1E0DE01119601900D928A95E1F7809129
:100840002803811102C08FEF01C081E0FE013196C3
:10085000E80FF11DE80FF11D6081606840E080E263
:1008600093E028960FB6F894DEBF0FBECDBFDF91A0
:10087000CF910C94F503CF93DF93823028F09091C1
:1008800025039860909325038093280362E370E02A
:1008900080E090E00E94760160912B0380E293E07B
:1008A0000E94780368EE73E080E090E00E94760199
:1008B00060E380E293E00E94DC03CBE4D6E4CE0167
:1008C0000197F1F760E380E293E00E94DC03219757
:1008D000F1F760E380E293E00E94DC0383E592E0BD
:1008E0000197F1F760E280E293E00E94DC036091FF
:1008F0002503606240E080E293E00E94F50384E01B
:100900008093260340E06CE080E293E00E94F503D0
:1009100040E061E080E293E00E94F503CBE3DFE199
:10092000CE010197F1F782E08093270340E066E073
:1009300080E293E00E94F50340E062E080E293E011
:100940000E94F5032197F1F7DF91CF91089541E0DF
:100950000E94F50381E090E00895089580E090E022
:100960000895CF93DF93D62FC42F682F70E085E0D2
:100970000E94F3006D2F70E086E00E94F3006C2F60
:1009800070E087E0DF91CF910C94F300CF93DF9379
:10099000EC0160E070E089E00E94F300BE018AE0B3
:1009A000DF91CF910C94F3000E948D0861157105C1
:1009B00079F0FB0101900020E9F73197AF01461B68
:1009C000570BDC01ED91FC910280F381E02D09943D
:1009D00080E090E00895CF93DF93BC0187E792E039
:1009E0000E94D604EC0168E371E087E792E00E9480
:1009F000D6048C0F9D1FDF91CF9108958230910511
:100A0000A1F08330910509F1019771F586E990E035
:100A10000E94C6040E940C046BE371E080E293E044
:100A20000E94D6044FEF60E00EC086E990E00E947D
:100A3000C6040E940C0463E471E080E293E00E942B
:100A4000D60440E06FEF80E01EC086E990E00E948F
:100A5000C6040E940C046BE471E080E293E00E9403
:100A6000D60440E060E00EC080E090E00E94C60442
:100A70000E940C0463E571E080E293E00E94D604DA
:100A80004FEF6FEF8FEF0C94B1041F920F920FB6E0
:100A90000F9211242F933F938F939F93AF93BF9304
:100AA00080916F0290917002A0917102B0917202D8
:100AB00030916E0223E0230F2D3720F40196A11D03
:100AC000B11D05C026E8230F0296A11DB11D20937C
:100AD0006E0280936F0290937002A0937102B093A4
:100AE00072028091730290917402A0917502B0918C
:100AF00076020196A11DB11D80937302909374023A
:100B0000A0937502B0937602BF91AF919F918F91A0
:100B10003F912F910F900FBE0F901F9018951F922D
:100B20000F920FB60F9211242F933F934F935F9321
:100B30006F937F938F939F93AF93BF93EF93FF93A5
:100B400087E792E00E942302FF91EF91BF91AF915E
:100B50009F918F917F916F915F914F913F912F91D5
:100B60000F900FBE0F901F9018951F920F920FB607
:100B70000F9211242F938F939F93EF93FF93E09104
:100B80008702F09188028081E0918D02F0918E02BF
:100B900082FD12C09081809190028F5F8F732091AF
:100BA0009102821751F0E0919002F0E0E958FD4F78
:100BB000958F8093900201C08081FF91EF919F916A
:100BC0008F912F910F900FBE0F901F9018951F922D
:100BD0000F920FB60F9211242F933F934F935F9371
:100BE0006F937F938F939F93AF93BF93EF93FF93F5
:100BF0008091B900887F803609F49CC068F58832FE
:100C000009F45BC090F4803109F454C038F48823AF
:100C100009F4F6C0883009F44DC0F6C0883109F4F3
:100C20004CC0803209F45DC0EFC0803409F468C064
:100C300048F4803309F455C0883309F0E5C0809347
:100C40003E02D8C0803509F44FC0883509F45DC034
:100C5000883409F0D9C0D6C0883909F4C7C0A8F4CF
:100C6000883709F467C038F4883609F463C08037E0
:100C700009F460C0C9C0883809F4B8C0803909F4E3
:100C80005FC0803809F0C0C05BC0803B09F486C0FB
:100C900038F4803A09F466C0883A09F47FC0B4C0D9
:100CA000803C09F4A7C0883C09F4A4C0883B09F43F
:100CB0008AC0AAC080911B0210C090913D02809111
:100CC0003C02981770F5E0913D0281E08E0F809311
:100CD0003D02F0E0E45EFD4F80818093BB0085EC37
:100CE00086C080933E028EC0E0913D0281E08E0F6F
:100CF00080933D028091BB00F0E0E45EFD4F808375
:100D000090913D0280913C026EC0E0913D0281E0F5
:100D10008E0F80933D028091BB00F0E0E45EFD4FBA
:100D200080838091660281116DC081E080936502AD
:100D300084EA61C083E08093670210921A02CFCFE9
:100D400080911A02803208F051C0E0911A0281E0CD
:100D50008E0F80931A028091BB00F0E0E650FE4FA8
:100D60008083BDCF85EC8093BC0010926702809198
:100D70001A02803230F4E0911A02F0E0E650FE4FA1
:100D8000108260911A0270E0E0916102F0916202BB
:100D90008AEF91E0099510921A0236C084E08093A0
:100DA00067021092F9011092F801E0916302F0914C
:100DB000640209958091F801811105C081E080935A
:100DC000F8011092D801E091F90181E08E0F809333
:100DD000F901F0E0E852FE4F80818093BB009091D2
:100DE000F9018091F801981708F479CF85E880938C
:100DF000BC000AC085EC8093BC001092670204C05E
:100E000010923E020E94BE02FF91EF91BF91AF91FE
:100E10009F918F917F916F915F914F913F912F9112
:100E20000F900FBE0F901F901895E7E7F2E0138226
:100E3000128288EE93E0A0E0B0E084839583A683DD
:100E4000B7832CE031E03183208325EC30E0358717
:100E5000248724EC30E03787268720EC30E0318B84
:100E6000208B21EC30E0338B228B22EC30E0358B71
:100E7000248B26EC30E0378B268B118E128E138E4E
:100E8000148EE4E1F3E01382128284839583A683B7
:100E9000B7838EE191E091838083E0E2F3E01382F7
:100EA000128280E391E09183808387E2848380E1F2
:100EB000818782E0828713860895789484B5826062
:100EC00084BD84B5816084BD85B5826085BD85B5EE
:100ED000816085BD80916E00816080936E0010926C
:100EE00081008091810082608093810080918100E7
:100EF0008160809381008091800081608093800078
:100F00008091B10084608093B1008091B0008160D5
:100F10008093B00080917A00846080937A00809101
:100F20007A00826080937A0080917A008160809359
:100F30007A0080917A00806880937A001092C100D4
:100F400089E00E9487008AE00E94870085E00E9475
:100F5000870086E00E94870087E00E948700109249
:100F60006B0210926A02109269021092680210924B
:100F7000670281E0809366021092650261E082E17F
:100F80000E94A60061E083E10E94A6008091B90062
:100F90008E7F8093B9008091B9008D7F8093B900D6
:100FA00088E48093B80085E48093BC0080EB91E0F6
:100FB000909364028093630281EB91E090936202CC
:100FC000809361021092250380912A030E943B04C2
:100FD00088E080932B0360E080E293E00E94780336
:100FE00082E00E943B046EE571E080E293E00E94A3
:100FF000D6040E940C046CE671E080E293E00E944B
:10100000D604E0918702F091880282E08083E0912B
:101010008302F09184021082E0918502F0918602B1
:101020008FEC808310928F02E0918B02F0918C0202
:1010300086E08083E0918902F0918A02808180615C
:101040008083E0918902F0918A02808188608083A8
:10105000E0918902F0918A02808180688083E0912A
:101060008902F0918A0280818F7D808387E792E0F8
:101070000E940D02181619060CF040C087E792E096
:101080000E94EB0190936D0280936C02883591056C
:1010900041F480E090E00E94FE0486E791E00E9427
:1010A000EB0480916C0290916D028134910541F4C2
:1010B00081E090E00E94FE0484E891E00E94EB044D
:1010C00080916C0290916D028234910541F482E02E
:1010D00090E00E94FE0485E991E00E94EB0480917B
:1010E0006C0290916D028334910541F483E090E0AD
:1010F0000E94FE0486EA91E00E94EB0464EF71E036
:1011000080E090E00E9476010E94B402AFCFEE0F23
:10111000FF1F0590F491E02D099481E090E0F89490
:081120000C949208F894FFCF33
:101128000000400014005400000000004502B20115
:10113800DC0192020D02EB01FF01000000004903EF
:101148001C03AE04F00214030003F10200000000C7
:10115800A704B201AE04AD040D0A00312D53706529
:101168006E6400322D5370656E6400332D537065C4
:101178006E6400506F776572204F66662100466185
:101188006E2053706565642069733A00456E6A6F16
:10119800792046616E00E9A38EE68987E585B3E983
:1011A80097AD2100E5BD93E5898DE4B8BAE4B88030
:1011B800E6A1A32100E5BD93E5898DE4B8BAE4BAB8
:1011C8008CE6A1A32100E5BD93E5898DE4B8BAE4D6
:0811D800B889E6A1A321000083
:00000001FF
